{
  "abi": [
    {
      "anonymous": false,
      "inputs": [
        {
          "indexed": false,
          "internalType": "address",
          "name": "",
          "type": "address"
        },
        {
          "indexed": false,
          "internalType": "address",
          "name": "",
          "type": "address"
        }
      ],
      "name": "NewWill",
      "type": "event"
    },
    {
      "inputs": [
        {
          "internalType": "address",
          "name": "willUser",
          "type": "address"
        },
        {
          "internalType": "uint256",
          "name": "expiration",
          "type": "uint256"
        }
      ],
      "name": "buildWill",
      "outputs": [],
      "stateMutability": "payable",
      "type": "function"
    },
    {
      "inputs": [],
      "name": "getCurrentTime",
      "outputs": [
        {
          "internalType": "uint256",
          "name": "",
          "type": "uint256"
        }
      ],
      "stateMutability": "view",
      "type": "function"
    }
  ],
  "bytecode": {
    "object": "0x608060405234801561001057600080fd5b50610c14806100206000396000f3fe6080604052600436106100295760003560e01c806329cb924d1461002e578063820bd8031461004e575b600080fd5b34801561003a57600080fd5b504260405190815260200160405180910390f35b61006161005c366004610171565b610063565b005b6000828260405161007390610164565b6001600160a01b0390921682526020820152604001604051809103906000f0801580156100a4573d6000803e3d6000fd5b5090506100b0816100f8565b604080516001600160a01b038086168252831660208201527fbda8bd72e45780aefafa973b1385f2c36da2367340d24ed66b5d6a8482d7ed69910160405180910390a1505050565b6040516001600160a01b03821660248201526101409060440160408051601f198184030181529190526020810180516001600160e01b031663161765e160e11b179052610143565b50565b80516a636f6e736f6c652e6c6f67602083016000808483855afa5050505050565b610a35806101aa83390190565b6000806040838503121561018457600080fd5b82356001600160a01b038116811461019b57600080fd5b94602093909301359350505056fe6080604052600180546001600160a01b0319168117905534801561002257600080fd5b50604051610a35380380610a3583398101604081905261004191610071565b600080546001600160a01b0319166001600160a01b03841617905561006681426100ab565b600255506100d19050565b6000806040838503121561008457600080fd5b82516001600160a01b038116811461009b57600080fd5b6020939093015192949293505050565b600082198211156100cc57634e487b7160e01b600052601160045260246000fd5b500190565b610955806100e06000396000f3fe608060405234801561001057600080fd5b50600436106100a95760003560e01c80632f13b60c116100715780632f13b60c146101485780634665096d146101535780636dbd40e81461015c5780637ee35ffa146101715780638a0dac4a14610184578063c7fa57cd1461019757600080fd5b80630665f04b146100ae578063092d79c2146100cc57806312065fe0146100ff5780631300a6d1146101155780632c68b8681461011d575b600080fd5b6100b66101aa565b6040516100c391906106f6565b60405180910390f35b6100ef6100da36600461075f565b60046020526000908152604090205460ff1681565b60405190151581526020016100c3565b610107610240565b6040519081526020016100c3565b610107610292565b600154610130906001600160a01b031681565b6040516001600160a01b0390911681526020016100c3565b6002544210156100ef565b61010760025481565b61016f61016a366004610781565b6102d0565b005b61016f61017f36600461079a565b610360565b61016f61019236600461075f565b61040e565b600054610130906001600160a01b031681565b6000546060906001600160a01b031633146101e05760405162461bcd60e51b81526004016101d7906107cd565b60405180910390fd5b600380548060200260200160405190810160405280929190818152602001828054801561023657602002820191906000526020600020905b81546001600160a01b03168152600190910190602001808311610218575b5050505050905090565b60408051808201909152601181527031b7b73a3930b1ba103130b630b731b29d60791b6020820152600080549091610281916001600160a01b0316316104e2565b506000546001600160a01b03163190565b600080546001600160a01b031633146102bd5760405162461bcd60e51b81526004016101d7906107cd565b426002546102cb9190610809565b905090565b6000546001600160a01b031633146102fa5760405162461bcd60e51b81526004016101d7906107cd565b600254421061033d5760405162461bcd60e51b815260206004820152600f60248201526e105b1c9958591e48115e1c1a5c9959608a1b60448201526064016101d7565b80610346610292565b6103509042610820565b61035a9190610820565b60025550565b6001600160a01b038216600090815260046020526040902060025442101515156001146103bd5760405162461bcd60e51b815260206004820152600b60248201526a139bdd08115e1c1a5c995960aa1b60448201526064016101d7565b805460ff166103fd5760405162461bcd60e51b815260206004820152600c60248201526b2737ba1023bab0b93234b0b760a11b60448201526064016101d7565b8291506104098261052b565b505050565b6000546001600160a01b031633146104385760405162461bcd60e51b81526004016101d7906107cd565b600254421061047b5760405162461bcd60e51b815260206004820152600f60248201526e105b1c9958591e48115e1c1a5c9959608a1b60448201526064016101d7565b6001600160a01b031660008181526004602052604081206003805460018181018355919093527fc2575a0e9e593c00f959f8c92f12db2869c3395a3b0502d05e2516446f71f85b90920180546001600160a01b031916909317909255815460ff1916179055565b61052782826040516024016104f8929190610838565b60408051601f198184030181529190526020810180516001600160e01b03166309710a9d60e41b1790526105b4565b5050565b336001600160a01b038216146105725760405162461bcd60e51b815260206004820152600c60248201526b2737ba1033bab0b93234b0b760a11b60448201526064016101d7565b6000805460649061058e906001600160a01b0316316002610895565b61059891906108b4565b90506105a3816105d5565b6105ac826106aa565b610409610240565b80516a636f6e736f6c652e6c6f67602083016000808483855afa5050505050565b6105f76040518060600160405280602381526020016108fd60239139826104e2565b60015460405160009182916001600160a01b039091169084905b60006040518083038185875af1925050503d806000811461064e576040519150601f19603f3d011682016040523d82523d6000602084013e610653565b606091505b50915091508161069c5760405162461bcd60e51b81526020600482015260146024820152732330b4b632b2103a379039b2b7321022ba3432b960611b60448201526064016101d7565b6106a4610240565b50505050565b6106d86040518060600160405280602681526020016108d7602691396000546001600160a01b0316316104e2565b6000805460405182916001600160a01b038086169291163190610611565b6020808252825182820181905260009190848201906040850190845b818110156107375783516001600160a01b031683529284019291840191600101610712565b50909695505050505050565b80356001600160a01b038116811461075a57600080fd5b919050565b60006020828403121561077157600080fd5b61077a82610743565b9392505050565b60006020828403121561079357600080fd5b5035919050565b600080604083850312156107ad57600080fd5b6107b683610743565b91506107c460208401610743565b90509250929050565b6020808252600c908201526b155b985d5d1a1bdc9a5e995960a21b604082015260600190565b634e487b7160e01b600052601160045260246000fd5b60008282101561081b5761081b6107f3565b500390565b60008219821115610833576108336107f3565b500190565b604081526000835180604084015260005b818110156108665760208187018101516060868401015201610849565b81811115610878576000606083860101525b50602083019390935250601f91909101601f191601606001919050565b60008160001904831182151516156108af576108af6107f3565b500290565b6000826108d157634e487b7160e01b600052601260045260246000fd5b50049056fe53656e64696e672077696c6c557365722062616c616e636520746f20677561726469616e733a506179696e672074686520636f6d6d697373696f6e206f6620616d6f756e7420257320a2646970667358221220f8ab5346b75cc4cad62589e20fb5d67eb2899e56a16052a1eb3b1fc2a082347f64736f6c634300080e0033a2646970667358221220f8f3cb69bb2e877596d39545405d8aee1f2fb37b956b1296ad6bbd9e6e0d081464736f6c634300080e0033",
    "linkReferences": {}
  },
  "methodIdentifiers": {
    "buildWill(address,uint256)": "820bd803",
    "getCurrentTime()": "29cb924d"
  },
  "id": 1
}