{
  "abi": [
    {
      "inputs": [
        {
          "internalType": "address payable",
          "name": "_dao",
          "type": "address"
        }
      ],
      "stateMutability": "nonpayable",
      "type": "constructor"
    },
    {
      "anonymous": false,
      "inputs": [
        {
          "indexed": false,
          "internalType": "address",
          "name": "",
          "type": "address"
        },
        {
          "indexed": false,
          "internalType": "address",
          "name": "",
          "type": "address"
        },
        {
          "indexed": false,
          "internalType": "address",
          "name": "",
          "type": "address"
        }
      ],
      "name": "NewWill",
      "type": "event"
    },
    {
      "inputs": [],
      "name": "Dao",
      "outputs": [
        {
          "internalType": "address payable",
          "name": "",
          "type": "address"
        }
      ],
      "stateMutability": "view",
      "type": "function"
    },
    {
      "inputs": [
        {
          "internalType": "address",
          "name": "willUser",
          "type": "address"
        },
        {
          "internalType": "uint256",
          "name": "expiration",
          "type": "uint256"
        }
      ],
      "name": "buildWill",
      "outputs": [],
      "stateMutability": "payable",
      "type": "function"
    },
    {
      "inputs": [],
      "name": "getCurrentTime",
      "outputs": [
        {
          "internalType": "uint256",
          "name": "",
          "type": "uint256"
        }
      ],
      "stateMutability": "view",
      "type": "function"
    }
  ],
  "bytecode": {
    "object": "0x608060405234801561001057600080fd5b5060405161117f38038061117f83398101604081905261002f91610054565b600080546001600160a01b0319166001600160a01b0392909216919091179055610084565b60006020828403121561006657600080fd5b81516001600160a01b038116811461007d57600080fd5b9392505050565b6110ec806100936000396000f3fe6080604052600436106100345760003560e01c806329cb924d146100395780632c68b86814610059578063820bd80314610091575b600080fd5b34801561004557600080fd5b506040514281526020015b60405180910390f35b34801561006557600080fd5b50600054610079906001600160a01b031681565b6040516001600160a01b039091168152602001610050565b6100a461009f366004610239565b6100a6565b005b60008054604051849184916001600160a01b03909116906100c69061022c565b6001600160a01b03938416815260208101929092529091166040820152606001604051809103906000f080158015610102573d6000803e3d6000fd5b5090506101356040518060400160405280600e81526020016d2bb4b6361031b7b73a3930b1ba1d60911b815250826101c2565b60408051808201909152600d81526c2230b79031b7b73a3930b1ba1d60991b602082015260005461016f91906001600160a01b03166101c2565b600054604080516001600160a01b038681168252848116602083015290921682820152517f13f6d75c4b78c592681f7fd63d20d45b85ee2609b6f2f6f5e4128f322d478da59181900360600190a1505050565b61020782826040516024016101d8929190610271565b60408051601f198184030181529190526020810180516001600160e01b031663319af33360e01b17905261020b565b5050565b80516a636f6e736f6c652e6c6f67602083016000808483855afa5050505050565b610ddf806102d883390190565b6000806040838503121561024c57600080fd5b82356001600160a01b038116811461026357600080fd5b946020939093013593505050565b604081526000835180604084015260005b8181101561029f5760208187018101516060868401015201610282565b818111156102b1576000606083860101525b506001600160a01b0393909316602083015250601f91909101601f19160160600191905056fe608060405234801561001057600080fd5b50604051610ddf380380610ddf83398101604081905261002f9161009b565b600080546001600160a01b0319166001600160a01b03851617905561005482426100d7565b600155600380546001600160a01b0319166001600160a01b0392909216919091179055506100fd9050565b80516001600160a01b038116811461009657600080fd5b919050565b6000806000606084860312156100b057600080fd5b6100b98461007f565b9250602084015191506100ce6040850161007f565b90509250925092565b600082198211156100f857634e487b7160e01b600052601160045260246000fd5b500190565b610cd38061010c6000396000f3fe6080604052600436106100f65760003560e01c80634665096d1161008f5780638a0dac4a116100615780638a0dac4a146102a257806398ea5fca146100fd578063a75b87d2146102c2578063c7fa57cd146102d7578063e086e5ec146102f757005b80634665096d1461023957806349df728c1461024f57806366168bd71461026f5780636dbd40e81461028257005b80632c68b868116100c85780632c68b868146101a95780632f13b60c146101e15780633aecd0e3146101f9578063452a93201461021957005b8063092d79c2146100ff57806312065fe0146101445780631300a6d11461016757806327e235e31461017c57005b366100fd57005b005b34801561010b57600080fd5b5061012f61011a366004610acf565b60046020526000908152604090205460ff1681565b60405190151581526020015b60405180910390f35b34801561015057600080fd5b5061015961030c565b60405190815260200161013b565b34801561017357600080fd5b50610159610346565b34801561018857600080fd5b50610159610197366004610acf565b60056020526000908152604090205481565b3480156101b557600080fd5b506003546101c9906001600160a01b031681565b6040516001600160a01b03909116815260200161013b565b3480156101ed57600080fd5b5060015442101561012f565b34801561020557600080fd5b50610159610214366004610acf565b61038d565b34801561022557600080fd5b506002546101c9906001600160a01b031681565b34801561024557600080fd5b5061015960015481565b34801561025b57600080fd5b506100fd61026a366004610acf565b610401565b6100fd61027d366004610aea565b6104d0565b34801561028e57600080fd5b506100fd61029d366004610b14565b610559565b3480156102ae57600080fd5b506100fd6102bd366004610acf565b6105e9565b3480156102ce57600080fd5b506101c9610678565b3480156102e357600080fd5b506000546101c9906001600160a01b031681565b34801561030357600080fd5b506100fd6106b3565b60006103416040518060400160405280601181526020017031b7b73a3930b1ba103130b630b731b29d60791b8152504761078e565b504790565b600080546001600160a01b0316331461037a5760405162461bcd60e51b815260040161037190610b2d565b60405180910390fd5b426001546103889190610b69565b905090565b6040516370a0823160e01b815230600482015260009082906001600160a01b038216906370a0823190602401602060405180830381865afa1580156103d6573d6000803e3d6000fd5b505050506040513d601f19601f820116820180604052508101906103fa9190610b80565b9392505050565b6040516370a0823160e01b815230600482015281906000906001600160a01b038316906370a0823190602401602060405180830381865afa15801561044a573d6000803e3d6000fd5b505050506040513d601f19601f8201168201806040525081019061046e9190610b80565b90506104af6040518060400160405280601d81526020017f5769746864726177696e6720546f6b656e2062616c616e6365206f663a0000008152508261078e565b6002546104cb906001600160a01b0384811691309116846107d3565b505050565b60405163095ea7b360e01b81523060048201526024810182905282906001600160a01b0382169063095ea7b3906044016020604051808303816000875af115801561051f573d6000803e3d6000fd5b505050506040513d601f19601f820116820180604052508101906105439190610b99565b506104cb6001600160a01b0382163330856107d3565b6000546001600160a01b031633146105835760405162461bcd60e51b815260040161037190610b2d565b60015442106105c65760405162461bcd60e51b815260206004820152600f60248201526e105b1c9958591e48115e1c1a5c9959608a1b6044820152606401610371565b806105cf610346565b6105d99042610bbb565b6105e39190610bbb565b60015550565b6000546001600160a01b031633146106135760405162461bcd60e51b815260040161037190610b2d565b60015442106106565760405162461bcd60e51b815260206004820152600f60248201526e105b1c9958591e48115e1c1a5c9959608a1b6044820152606401610371565b600280546001600160a01b0319166001600160a01b0392909216919091179055565b600080546001600160a01b031633146106a35760405162461bcd60e51b815260040161037190610b2d565b506002546001600160a01b031690565b6106d5604051806060016040528060218152602001610c7d602191394761078e565b6002546040516000916001600160a01b03169047908381818185875af1925050503d8060008114610722576040519150601f19603f3d011682016040523d82523d6000602084013e610727565b606091505b50509050806107825760405162461bcd60e51b815260206004820152602160248201527f4661696c656420746f2073656e6420457468657220746f20677561726469616e6044820152607360f81b6064820152608401610371565b61078a61030c565b5050565b61078a82826040516024016107a4929190610c2b565b60408051601f198184030181529190526020810180516001600160e01b03166309710a9d60e41b179052610833565b604080516001600160a01b0385811660248301528416604482015260648082018490528251808303909101815260849091019091526020810180516001600160e01b03166323b872dd60e01b17905261082d908590610854565b50505050565b80516a636f6e736f6c652e6c6f67602083016000808483855afa5050505050565b60006108a9826040518060400160405280602081526020017f5361666545524332303a206c6f772d6c6576656c2063616c6c206661696c6564815250856001600160a01b03166109269092919063ffffffff16565b8051909150156104cb57808060200190518101906108c79190610b99565b6104cb5760405162461bcd60e51b815260206004820152602a60248201527f5361666545524332303a204552433230206f7065726174696f6e20646964206e6044820152691bdd081cdd58d8d9595960b21b6064820152608401610371565b6060610935848460008561093d565b949350505050565b60608247101561099e5760405162461bcd60e51b815260206004820152602660248201527f416464726573733a20696e73756666696369656e742062616c616e636520666f6044820152651c8818d85b1b60d21b6064820152608401610371565b600080866001600160a01b031685876040516109ba9190610c4d565b60006040518083038185875af1925050503d80600081146109f7576040519150601f19603f3d011682016040523d82523d6000602084013e6109fc565b606091505b5091509150610a0d87838387610a18565b979650505050505050565b60608315610a84578251610a7d576001600160a01b0385163b610a7d5760405162461bcd60e51b815260206004820152601d60248201527f416464726573733a2063616c6c20746f206e6f6e2d636f6e74726163740000006044820152606401610371565b5081610935565b6109358383815115610a995781518083602001fd5b8060405162461bcd60e51b81526004016103719190610c69565b80356001600160a01b0381168114610aca57600080fd5b919050565b600060208284031215610ae157600080fd5b6103fa82610ab3565b60008060408385031215610afd57600080fd5b610b0683610ab3565b946020939093013593505050565b600060208284031215610b2657600080fd5b5035919050565b6020808252600c908201526b155b985d5d1a1bdc9a5e995960a21b604082015260600190565b634e487b7160e01b600052601160045260246000fd5b600082821015610b7b57610b7b610b53565b500390565b600060208284031215610b9257600080fd5b5051919050565b600060208284031215610bab57600080fd5b815180151581146103fa57600080fd5b60008219821115610bce57610bce610b53565b500190565b60005b83811015610bee578181015183820152602001610bd6565b8381111561082d5750506000910152565b60008151808452610c17816020860160208601610bd3565b601f01601f19169290920160200192915050565b604081526000610c3e6040830185610bff565b90508260208301529392505050565b60008251610c5f818460208701610bd3565b9190910192915050565b6020815260006103fa6020830184610bff56fe53656e64696e67204554482062616c616e636520746f20677561726469616e733aa26469706673582212207548041563bfe52ae7e10847aeab3d3569212a5dd24f5e07648117f06324510664736f6c634300080a0033a2646970667358221220117196dad9c0081f9cc0325d0405b24c3a2da2b8b785e8b8a9ce12fb2601f62664736f6c634300080a0033",
    "linkReferences": {}
  },
  "methodIdentifiers": {
    "Dao()": "2c68b868",
    "buildWill(address,uint256)": "820bd803",
    "getCurrentTime()": "29cb924d"
  },
  "id": 9
}