{
  "abi": [
    {
      "inputs": [
        {
          "internalType": "address",
          "name": "_willUser",
          "type": "address"
        },
        {
          "internalType": "uint256",
          "name": "_expiration",
          "type": "uint256"
        }
      ],
      "stateMutability": "nonpayable",
      "type": "constructor"
    },
    {
      "inputs": [],
      "name": "Dao",
      "outputs": [
        {
          "internalType": "address",
          "name": "",
          "type": "address"
        }
      ],
      "stateMutability": "view",
      "type": "function"
    },
    {
      "inputs": [],
      "name": "expiration",
      "outputs": [
        {
          "internalType": "uint256",
          "name": "",
          "type": "uint256"
        }
      ],
      "stateMutability": "view",
      "type": "function"
    },
    {
      "inputs": [],
      "name": "getBalance",
      "outputs": [
        {
          "internalType": "uint256",
          "name": "",
          "type": "uint256"
        }
      ],
      "stateMutability": "view",
      "type": "function"
    },
    {
      "inputs": [],
      "name": "getGuardians",
      "outputs": [
        {
          "internalType": "address[]",
          "name": "",
          "type": "address[]"
        }
      ],
      "stateMutability": "view",
      "type": "function"
    },
    {
      "inputs": [
        {
          "internalType": "address",
          "name": "",
          "type": "address"
        }
      ],
      "name": "guardianInfo",
      "outputs": [
        {
          "internalType": "bool",
          "name": "isGuardian",
          "type": "bool"
        }
      ],
      "stateMutability": "view",
      "type": "function"
    },
    {
      "inputs": [],
      "name": "isExpired",
      "outputs": [
        {
          "internalType": "bool",
          "name": "",
          "type": "bool"
        }
      ],
      "stateMutability": "view",
      "type": "function"
    },
    {
      "inputs": [
        {
          "internalType": "address",
          "name": "_guardian",
          "type": "address"
        },
        {
          "internalType": "address",
          "name": "superGuardian",
          "type": "address"
        }
      ],
      "name": "ownershipTransfer",
      "outputs": [],
      "stateMutability": "nonpayable",
      "type": "function"
    },
    {
      "inputs": [
        {
          "internalType": "uint256",
          "name": "_extension",
          "type": "uint256"
        }
      ],
      "name": "setExtension",
      "outputs": [],
      "stateMutability": "nonpayable",
      "type": "function"
    },
    {
      "inputs": [
        {
          "internalType": "address",
          "name": "_guardian",
          "type": "address"
        }
      ],
      "name": "setGuardian",
      "outputs": [],
      "stateMutability": "nonpayable",
      "type": "function"
    },
    {
      "inputs": [],
      "name": "timeLeft",
      "outputs": [
        {
          "internalType": "uint256",
          "name": "",
          "type": "uint256"
        }
      ],
      "stateMutability": "view",
      "type": "function"
    },
    {
      "inputs": [],
      "name": "willUser",
      "outputs": [
        {
          "internalType": "address",
          "name": "",
          "type": "address"
        }
      ],
      "stateMutability": "view",
      "type": "function"
    }
  ],
  "bytecode": {
    "object": "0x6080604052600180546001600160a01b0319168117905534801561002257600080fd5b50604051610a75380380610a7583398101604081905261004191610071565b600080546001600160a01b0319166001600160a01b03841617905561006681426100a9565b600255506100cd9050565b60008060408385031215610083578182fd5b82516001600160a01b0381168114610099578283fd5b6020939093015192949293505050565b600082198211156100c857634e487b7160e01b81526011600452602481fd5b500190565b610999806100dc6000396000f3fe608060405234801561001057600080fd5b50600436106100a95760003560e01c80632f13b60c116100715780632f13b60c1461011e5780634665096d146101265780636dbd40e81461012e5780637ee35ffa146101435780638a0dac4a14610156578063c7fa57cd14610169576100a9565b80630665f04b146100ae578063092d79c2146100cc57806312065fe0146100ec5780631300a6d1146101015780632c68b86814610109575b600080fd5b6100b6610171565b6040516100c391906106ec565b60405180910390f35b6100df6100da36600461066a565b610207565b6040516100c39190610739565b6100f461021c565b6040516100c3919061088d565b6100f461026e565b6101116102ac565b6040516100c391906106d8565b6100df6102bb565b6100f46102c4565b61014161013c3660046106bd565b6102ca565b005b61014161015136600461068b565b61033c565b61014161016436600461066a565b6103af565b610111610465565b6000546060906001600160a01b031633146101a75760405162461bcd60e51b815260040161019e906107c5565b60405180910390fd5b60038054806020026020016040519081016040528092919081815260200182805480156101fd57602002820191906000526020600020905b81546001600160a01b031681526001909101906020018083116101df575b5050505050905090565b60046020526000908152604090205460ff1681565b60408051808201909152601181527031b7b73a3930b1ba103130b630b731b29d60791b602082015260008054909161025d916001600160a01b031631610474565b506000546001600160a01b03163190565b600080546001600160a01b031633146102995760405162461bcd60e51b815260040161019e906107c5565b426002546102a791906108ed565b905090565b6001546001600160a01b031681565b60025442101590565b60025481565b6000546001600160a01b031633146102f45760405162461bcd60e51b815260040161019e906107c5565b6102fc6102bb565b156103195760405162461bcd60e51b815260040161019e906107eb565b8061032261026e565b61032c9042610896565b6103369190610896565b60025550565b6001600160a01b038216600090815260046020526040902061035c6102bb565b151560011461037d5760405162461bcd60e51b815260040161019e90610842565b805460ff1661039e5760405162461bcd60e51b815260040161019e90610867565b8291506103aa826104bd565b505050565b6000546001600160a01b031633146103d95760405162461bcd60e51b815260040161019e906107c5565b6103e16102bb565b156103fe5760405162461bcd60e51b815260040161019e906107eb565b6001600160a01b031660008181526004602052604081206003805460018181018355919093527fc2575a0e9e593c00f959f8c92f12db2869c3395a3b0502d05e2516446f71f85b90920180546001600160a01b031916909317909255815460ff1916179055565b6000546001600160a01b031681565b6104b9828260405160240161048a929190610744565b60408051601f198184030181529190526020810180516001600160e01b03166309710a9d60e41b179052610527565b5050565b336001600160a01b038216146104e55760405162461bcd60e51b815260040161019e9061079f565b60008054606490610501906001600160a01b03163160026108ce565b61050b91906108ae565b905061051681610548565b61051f826105fe565b6103aa61021c565b80516a636f6e736f6c652e6c6f67602083016000808483855afa5050505050565b61056a6040518060600160405280602381526020016109416023913982610474565b60015460405160009182916001600160a01b0390911690849061058c906106d5565b60006040518083038185875af1925050503d80600081146105c9576040519150601f19603f3d011682016040523d82523d6000602084013e6105ce565b606091505b5091509150816105f05760405162461bcd60e51b815260040161019e90610814565b6105f861021c565b50505050565b61062c60405180606001604052806026815260200161091b602691396000546001600160a01b031631610474565b6000805460405182916001600160a01b03808616929116319061058c906106d5565b80356001600160a01b038116811461066557600080fd5b919050565b60006020828403121561067b578081fd5b6106848261064e565b9392505050565b6000806040838503121561069d578081fd5b6106a68361064e565b91506106b46020840161064e565b90509250929050565b6000602082840312156106ce578081fd5b5035919050565b90565b6001600160a01b0391909116815260200190565b6020808252825182820181905260009190848201906040850190845b8181101561072d5783516001600160a01b031683529284019291840191600101610708565b50909695505050505050565b901515815260200190565b6000604082528351806040840152815b818110156107715760208187018101516060868401015201610754565b818111156107825782606083860101525b50602083019390935250601f91909101601f191601606001919050565b6020808252600c908201526b2737ba1033bab0b93234b0b760a11b604082015260600190565b6020808252600c908201526b155b985d5d1a1bdc9a5e995960a21b604082015260600190565b6020808252600f908201526e105b1c9958591e48115e1c1a5c9959608a1b604082015260600190565b6020808252601490820152732330b4b632b2103a379039b2b7321022ba3432b960611b604082015260600190565b6020808252600b908201526a139bdd08115e1c1a5c995960aa1b604082015260600190565b6020808252600c908201526b2737ba1023bab0b93234b0b760a11b604082015260600190565b90815260200190565b600082198211156108a9576108a9610904565b500190565b6000826108c957634e487b7160e01b81526012600452602481fd5b500490565b60008160001904831182151516156108e8576108e8610904565b500290565b6000828210156108ff576108ff610904565b500390565b634e487b7160e01b600052601160045260246000fdfe53656e64696e672077696c6c557365722062616c616e636520746f20677561726469616e733a506179696e672074686520636f6d6d697373696f6e206f6620616d6f756e7420257320a2646970667358221220cdcd86356ed9ac44bda840d443abdb7cd588aedc2f094f8085c930ef358646b064736f6c63430008000033",
    "linkReferences": {}
  },
  "methodIdentifiers": {
    "Dao()": "2c68b868",
    "expiration()": "4665096d",
    "getBalance()": "12065fe0",
    "getGuardians()": "0665f04b",
    "guardianInfo(address)": "092d79c2",
    "isExpired()": "2f13b60c",
    "ownershipTransfer(address,address)": "7ee35ffa",
    "setExtension(uint256)": "6dbd40e8",
    "setGuardian(address)": "8a0dac4a",
    "timeLeft()": "1300a6d1",
    "willUser()": "c7fa57cd"
  },
  "id": 7
}