{
  "abi": [
    {
      "inputs": [
        {
          "internalType": "address payable",
          "name": "_dao",
          "type": "address"
        }
      ],
      "stateMutability": "nonpayable",
      "type": "constructor"
    },
    {
      "anonymous": false,
      "inputs": [
        {
          "indexed": false,
          "internalType": "address",
          "name": "",
          "type": "address"
        },
        {
          "indexed": false,
          "internalType": "address",
          "name": "",
          "type": "address"
        },
        {
          "indexed": false,
          "internalType": "address",
          "name": "",
          "type": "address"
        }
      ],
      "name": "NewWill",
      "type": "event"
    },
    {
      "inputs": [],
      "name": "Dao",
      "outputs": [
        {
          "internalType": "address payable",
          "name": "",
          "type": "address"
        }
      ],
      "stateMutability": "view",
      "type": "function"
    },
    {
      "inputs": [
        {
          "internalType": "address",
          "name": "willUser",
          "type": "address"
        },
        {
          "internalType": "uint256",
          "name": "expiration",
          "type": "uint256"
        }
      ],
      "name": "buildWill",
      "outputs": [],
      "stateMutability": "payable",
      "type": "function"
    },
    {
      "inputs": [],
      "name": "getCurrentTime",
      "outputs": [
        {
          "internalType": "uint256",
          "name": "",
          "type": "uint256"
        }
      ],
      "stateMutability": "view",
      "type": "function"
    }
  ],
  "bytecode": {
    "object": "0x608060405234801561001057600080fd5b506040516115fd3803806115fd83398101604081905261002f91610054565b600080546001600160a01b0319166001600160a01b0392909216919091179055610084565b60006020828403121561006657600080fd5b81516001600160a01b038116811461007d57600080fd5b9392505050565b61156a806100936000396000f3fe6080604052600436106100345760003560e01c806329cb924d146100395780632c68b86814610059578063820bd80314610091575b600080fd5b34801561004557600080fd5b506040514281526020015b60405180910390f35b34801561006557600080fd5b50600054610079906001600160a01b031681565b6040516001600160a01b039091168152602001610050565b6100a461009f366004610239565b6100a6565b005b60008054604051849184916001600160a01b03909116906100c69061022c565b6001600160a01b03938416815260208101929092529091166040820152606001604051809103906000f080158015610102573d6000803e3d6000fd5b5090506101356040518060400160405280600e81526020016d2bb4b6361031b7b73a3930b1ba1d60911b815250826101c2565b60408051808201909152600d81526c2230b79031b7b73a3930b1ba1d60991b602082015260005461016f91906001600160a01b03166101c2565b600054604080516001600160a01b038681168252848116602083015290921682820152517f13f6d75c4b78c592681f7fd63d20d45b85ee2609b6f2f6f5e4128f322d478da59181900360600190a1505050565b61020782826040516024016101d8929190610271565b60408051601f198184030181529190526020810180516001600160e01b031663319af33360e01b17905261020b565b5050565b80516a636f6e736f6c652e6c6f67602083016000808483855afa5050505050565b61125d806102d883390190565b6000806040838503121561024c57600080fd5b82356001600160a01b038116811461026357600080fd5b946020939093013593505050565b604081526000835180604084015260005b8181101561029f5760208187018101516060868401015201610282565b818111156102b1576000606083860101525b506001600160a01b0393909316602083015250601f91909101601f19160160600191905056fe608060405234801561001057600080fd5b5060405161125d38038061125d83398101604081905261002f9161009b565b600080546001600160a01b0319166001600160a01b03851617905561005482426100d7565b600155600380546001600160a01b0319166001600160a01b0392909216919091179055506100fd9050565b80516001600160a01b038116811461009657600080fd5b919050565b6000806000606084860312156100b057600080fd5b6100b98461007f565b9250602084015191506100ce6040850161007f565b90509250925092565b600082198211156100f857634e487b7160e01b600052601160045260246000fd5b500190565b6111518061010c6000396000f3fe6080604052600436106100e85760003560e01c80633aecd0e31161008a5780638a0dac4a116100595780638a0dac4a14610278578063c7fa57cd14610298578063d0e30db014610256578063db91f7a6146102b857600080fd5b80633aecd0e31461020d5780634665096d1461022d57806366168bd7146102435780636dbd40e81461025857600080fd5b80631300a6d1116100c65780631300a6d11461017b57806327e235e3146101905780632c68b868146101bd5780632f13b60c146101f557600080fd5b80630665f04b146100ed578063092d79c21461011857806312065fe014610158575b600080fd5b3480156100f957600080fd5b506101026102cb565b60405161010f9190610e10565b60405180910390f35b34801561012457600080fd5b50610148610133366004610e79565b60046020526000908152604090205460ff1681565b604051901515815260200161010f565b34801561016457600080fd5b5061016d610361565b60405190815260200161010f565b34801561018757600080fd5b5061016d61039b565b34801561019c57600080fd5b5061016d6101ab366004610e79565b60056020526000908152604090205481565b3480156101c957600080fd5b506003546101dd906001600160a01b031681565b6040516001600160a01b03909116815260200161010f565b34801561020157600080fd5b50600154421015610148565b34801561021957600080fd5b5061016d610228366004610e79565b6103d9565b34801561023957600080fd5b5061016d60015481565b610256610251366004610e94565b61044d565b005b34801561026457600080fd5b50610256610273366004610ebe565b6104db565b34801561028457600080fd5b50610256610293366004610e79565b61056b565b3480156102a457600080fd5b506000546101dd906001600160a01b031681565b6102566102c6366004610ed7565b61063f565b6000546060906001600160a01b031633146103015760405162461bcd60e51b81526004016102f890610f1a565b60405180910390fd5b600280548060200260200160405190810160405280929190818152602001828054801561035757602002820191906000526020600020905b81546001600160a01b03168152600190910190602001808311610339575b5050505050905090565b60006103966040518060400160405280601181526020017031b7b73a3930b1ba103130b630b731b29d60791b815250476106ec565b504790565b600080546001600160a01b031633146103c65760405162461bcd60e51b81526004016102f890610f1a565b426001546103d49190610f56565b905090565b6040516370a0823160e01b815230600482015260009082906001600160a01b038216906370a0823190602401602060405180830381865afa158015610422573d6000803e3d6000fd5b505050506040513d601f19601f820116820180604052508101906104469190610f6d565b9392505050565b60405163095ea7b360e01b81523060048201526024810182905282906001600160a01b0382169063095ea7b3906044016020604051808303816000875af115801561049c573d6000803e3d6000fd5b505050506040513d601f19601f820116820180604052508101906104c09190610f86565b506104d66001600160a01b038216333085610735565b505050565b6000546001600160a01b031633146105055760405162461bcd60e51b81526004016102f890610f1a565b60015442106105485760405162461bcd60e51b815260206004820152600f60248201526e105b1c9958591e48115e1c1a5c9959608a1b60448201526064016102f8565b8061055161039b565b61055b9042610fa8565b6105659190610fa8565b60015550565b6000546001600160a01b031633146105955760405162461bcd60e51b81526004016102f890610f1a565b60015442106105d85760405162461bcd60e51b815260206004820152600f60248201526e105b1c9958591e48115e1c1a5c9959608a1b60448201526064016102f8565b6001600160a01b031660008181526004602052604081206002805460018181018355919093527f405787fa12a823e0f2b7631cc41b3ba8828b3321ca811111fa75cd3aa3bb5ace90920180546001600160a01b031916909317909255815460ff1916179055565b6001600160a01b038316600090815260046020526040902060018054421015146106995760405162461bcd60e51b815260206004820152600b60248201526a139bdd08115e1c1a5c995960aa1b60448201526064016102f8565b805460ff166106d95760405162461bcd60e51b815260206004820152600c60248201526b2737ba1023bab0b93234b0b760a11b60448201526064016102f8565b8392506106e683836107a0565b50505050565b6107318282604051602401610702929190611018565b60408051601f198184030181529190526020810180516001600160e01b03166309710a9d60e41b1790526108b6565b5050565b6040516001600160a01b03808516602483015283166044820152606481018290526106e69085906323b872dd60e01b906084015b60408051601f198184030181529190526020810180516001600160e01b03166001600160e01b0319909316929092179091526108d7565b80336001600160a01b038416146107e85760405162461bcd60e51b815260206004820152600c60248201526b2737ba1033bab0b93234b0b760a11b60448201526064016102f8565b600060646107f747600261103a565b6108019190611059565b6040516370a0823160e01b81523060048201529091506000906064906001600160a01b038516906370a0823190602401602060405180830381865afa15801561084e573d6000803e3d6000fd5b505050506040513d601f19601f820116820180604052508101906108729190610f6d565b61087d90600261103a565b6108879190611059565b9050610892826109a9565b61089c8185610a81565b6108a68585610ac2565b6108af85610b84565b5050505050565b80516a636f6e736f6c652e6c6f67602083016000808483855afa5050505050565b600061092c826040518060400160405280602081526020017f5361666545524332303a206c6f772d6c6576656c2063616c6c206661696c6564815250856001600160a01b0316610c539092919063ffffffff16565b8051909150156104d6578080602001905181019061094a9190610f86565b6104d65760405162461bcd60e51b815260206004820152602a60248201527f5361666545524332303a204552433230206f7065726174696f6e20646964206e6044820152691bdd081cdd58d8d9595960b21b60648201526084016102f8565b6109cb6040518060600160405280602781526020016110d460279139826106ec565b6003546040516000916001600160a01b03169083908381818185875af1925050503d8060008114610a18576040519150601f19603f3d011682016040523d82523d6000602084013e610a1d565b606091505b5050905080610a795760405162461bcd60e51b815260206004820152602260248201527f4661696c656420746f2073656e6420457468657220666f7220636f6d6d69736960448201526137b760f11b60648201526084016102f8565b6104d6610361565b6000819050610aa86040518060600160405280602981526020016110ab60299139846106ec565b6003546104d6906001600160a01b03838116911685610c6a565b6040516370a0823160e01b815230600482015282906000906001600160a01b038316906370a0823190602401602060405180830381865afa158015610b0b573d6000803e3d6000fd5b505050506040513d601f19601f82011682018060405250810190610b2f9190610f6d565b9050610b706040518060400160405280601d81526020017f5769746864726177696e6720546f6b656e2062616c616e6365206f663a000000815250826106ec565b6106e66001600160a01b0383168483610c6a565b610ba66040518060600160405280602181526020016110fb60219139476106ec565b6000816001600160a01b03164760405160006040518083038185875af1925050503d8060008114610bf3576040519150601f19603f3d011682016040523d82523d6000602084013e610bf8565b606091505b5050905080610a795760405162461bcd60e51b815260206004820152602160248201527f4661696c656420746f2073656e6420457468657220746f20677561726469616e6044820152607360f81b60648201526084016102f8565b6060610c628484600085610c9a565b949350505050565b6040516001600160a01b0383166024820152604481018290526104d690849063a9059cbb60e01b90606401610769565b606082471015610cfb5760405162461bcd60e51b815260206004820152602660248201527f416464726573733a20696e73756666696369656e742062616c616e636520666f6044820152651c8818d85b1b60d21b60648201526084016102f8565b600080866001600160a01b03168587604051610d17919061107b565b60006040518083038185875af1925050503d8060008114610d54576040519150601f19603f3d011682016040523d82523d6000602084013e610d59565b606091505b5091509150610d6a87838387610d75565b979650505050505050565b60608315610de1578251610dda576001600160a01b0385163b610dda5760405162461bcd60e51b815260206004820152601d60248201527f416464726573733a2063616c6c20746f206e6f6e2d636f6e747261637400000060448201526064016102f8565b5081610c62565b610c628383815115610df65781518083602001fd5b8060405162461bcd60e51b81526004016102f89190611097565b6020808252825182820181905260009190848201906040850190845b81811015610e515783516001600160a01b031683529284019291840191600101610e2c565b50909695505050505050565b80356001600160a01b0381168114610e7457600080fd5b919050565b600060208284031215610e8b57600080fd5b61044682610e5d565b60008060408385031215610ea757600080fd5b610eb083610e5d565b946020939093013593505050565b600060208284031215610ed057600080fd5b5035919050565b600080600060608486031215610eec57600080fd5b610ef584610e5d565b9250610f0360208501610e5d565b9150610f1160408501610e5d565b90509250925092565b6020808252600c908201526b155b985d5d1a1bdc9a5e995960a21b604082015260600190565b634e487b7160e01b600052601160045260246000fd5b600082821015610f6857610f68610f40565b500390565b600060208284031215610f7f57600080fd5b5051919050565b600060208284031215610f9857600080fd5b8151801515811461044657600080fd5b60008219821115610fbb57610fbb610f40565b500190565b60005b83811015610fdb578181015183820152602001610fc3565b838111156106e65750506000910152565b60008151808452611004816020860160208601610fc0565b601f01601f19169290920160200192915050565b60408152600061102b6040830185610fec565b90508260208301529392505050565b600081600019048311821515161561105457611054610f40565b500290565b60008261107657634e487b7160e01b600052601260045260246000fd5b500490565b6000825161108d818460208701610fc0565b9190910192915050565b6020815260006104466020830184610fec56fe506179696e672074686520546f6b656e20636f6d6d697373696f6e206f6620616d6f756e7420257320506179696e67207468652045544820636f6d6d697373696f6e206f6620616d6f756e742025732053656e64696e67204554482062616c616e636520746f20677561726469616e733aa26469706673582212201175e44759a5e0220cad89daf1ff79c52d1836a8d697ac652c83de369bcefea864736f6c634300080a0033a26469706673582212204092c44ddf063bc56c29ee1506a4aba2be6f8f6660d7c1d17e1733ec0b09e95064736f6c634300080a0033",
    "linkReferences": {}
  },
  "methodIdentifiers": {
    "Dao()": "2c68b868",
    "buildWill(address,uint256)": "820bd803",
    "getCurrentTime()": "29cb924d"
  },
  "id": 8
}