{
  "abi": [
    {
      "anonymous": false,
      "inputs": [
        {
          "indexed": false,
          "internalType": "address",
          "name": "",
          "type": "address"
        },
        {
          "indexed": false,
          "internalType": "address",
          "name": "",
          "type": "address"
        }
      ],
      "name": "NewWill",
      "type": "event"
    },
    {
      "inputs": [
        {
          "internalType": "address",
          "name": "willUser",
          "type": "address"
        },
        {
          "internalType": "uint256",
          "name": "expiration",
          "type": "uint256"
        }
      ],
      "name": "buildWill",
      "outputs": [],
      "stateMutability": "payable",
      "type": "function"
    },
    {
      "inputs": [],
      "name": "getCurrentTime",
      "outputs": [
        {
          "internalType": "uint256",
          "name": "",
          "type": "uint256"
        }
      ],
      "stateMutability": "view",
      "type": "function"
    }
  ],
  "bytecode": {
    "object": "0x608060405234801561001057600080fd5b50610d7d806100206000396000f3fe6080604052600436106100295760003560e01c806329cb924d1461002e578063820bd80314610059575b600080fd5b34801561003a57600080fd5b5061004361006e565b60405161005091906101e4565b60405180910390f35b61006c610067366004610167565b610072565b005b4290565b600082826040516100829061015a565b61008d9291906101cb565b604051809103906000f0801580156100a9573d6000803e3d6000fd5b5090506100b5816100f3565b7fbda8bd72e45780aefafa973b1385f2c36da2367340d24ed66b5d6a8482d7ed6983826040516100e69291906101b1565b60405180910390a1505050565b61013681604051602401610107919061019d565b60408051601f198184030181529190526020810180516001600160e01b031663161765e160e11b179052610139565b50565b80516a636f6e736f6c652e6c6f67602083016000808483855afa5050505050565b610b5a806101ee83390190565b60008060408385031215610179578182fd5b82356001600160a01b038116811461018f578283fd5b946020939093013593505050565b6001600160a01b0391909116815260200190565b6001600160a01b0392831681529116602082015260400190565b6001600160a01b03929092168252602082015260400190565b9081526020019056fe6080604052600180546001600160a01b0319168117905534801561002257600080fd5b50604051610b5a380380610b5a83398101604081905261004191610071565b600080546001600160a01b0319166001600160a01b03841617905561006681426100a9565b600255506100cd9050565b60008060408385031215610083578182fd5b82516001600160a01b0381168114610099578283fd5b6020939093015192949293505050565b600082198211156100c857634e487b7160e01b81526011600452602481fd5b500190565b610a7e806100dc6000396000f3fe608060405234801561001057600080fd5b50600436106100a95760003560e01c80632f13b60c116100715780632f13b60c1461011e5780634665096d146101265780636dbd40e81461012e5780637ee35ffa146101435780638a0dac4a14610156578063c7fa57cd14610169576100a9565b80630665f04b146100ae578063092d79c2146100cc57806312065fe0146100ec5780631300a6d1146101015780632c68b86814610109575b600080fd5b6100b6610171565b6040516100c391906107e6565b60405180910390f35b6100df6100da366004610719565b610207565b6040516100c39190610833565b6100f461021c565b6040516100c39190610972565b6100f461026e565b6101116102df565b6040516100c391906107d2565b6100df6102ee565b6100f461032e565b61014161013c36600461076c565b610334565b005b61014161015136600461073a565b6103a6565b610141610164366004610719565b610419565b6101116104cf565b6000546060906001600160a01b031633146101a75760405162461bcd60e51b815260040161019e906108aa565b60405180910390fd5b60038054806020026020016040519081016040528092919081815260200182805480156101fd57602002820191906000526020600020905b81546001600160a01b031681526001909101906020018083116101df575b5050505050905090565b60046020526000908152604090205460ff1681565b60408051808201909152601181527031b7b73a3930b1ba103130b630b731b29d60791b602082015260008054909161025d916001600160a01b0316316104de565b506000546001600160a01b03163190565b600080546001600160a01b031633146102995760405162461bcd60e51b815260040161019e906108aa565b6102cc6040518060400160405280600a8152602001692a34b6b2903632b33a1d60b11b8152506102c761026e565b6104de565b426002546102da91906109d2565b905090565b6001546001600160a01b031681565b60006103246040518060400160405280600b81526020016a497320657870697265643f60a81b81525061031f6102ee565b610527565b5060025442101590565b60025481565b6000546001600160a01b0316331461035e5760405162461bcd60e51b815260040161019e906108aa565b6103666102ee565b156103835760405162461bcd60e51b815260040161019e906108d0565b8061038c61026e565b610396904261097b565b6103a0919061097b565b60025550565b6001600160a01b03821660009081526004602052604090206103c66102ee565b15156001146103e75760405162461bcd60e51b815260040161019e90610927565b805460ff166104085760405162461bcd60e51b815260040161019e9061094c565b8291506104148261056c565b505050565b6000546001600160a01b031633146104435760405162461bcd60e51b815260040161019e906108aa565b61044b6102ee565b156104685760405162461bcd60e51b815260040161019e906108d0565b6001600160a01b031660008181526004602052604081206003805460018181018355919093527fc2575a0e9e593c00f959f8c92f12db2869c3395a3b0502d05e2516446f71f85b90920180546001600160a01b031916909317909255815460ff1916179055565b6000546001600160a01b031681565b61052382826040516024016104f4929190610862565b60408051601f198184030181529190526020810180516001600160e01b03166309710a9d60e41b1790526105d6565b5050565b610523828260405160240161053d92919061083e565b60408051601f198184030181529190526020810180516001600160e01b031663c3b5563560e01b1790526105d6565b336001600160a01b038216146105945760405162461bcd60e51b815260040161019e90610884565b600080546064906105b0906001600160a01b03163160026109b3565b6105ba9190610993565b90506105c5816105f7565b6105ce826106ad565b61041461021c565b80516a636f6e736f6c652e6c6f67602083016000808483855afa5050505050565b610619604051806060016040528060238152602001610a2660239139826104de565b60015460405160009182916001600160a01b0390911690849061063b906107cf565b60006040518083038185875af1925050503d8060008114610678576040519150601f19603f3d011682016040523d82523d6000602084013e61067d565b606091505b50915091508161069f5760405162461bcd60e51b815260040161019e906108f9565b6106a761021c565b50505050565b6106db604051806060016040528060268152602001610a00602691396000546001600160a01b0316316104de565b6000805460405182916001600160a01b03808616929116319061063b906107cf565b80356001600160a01b038116811461071457600080fd5b919050565b60006020828403121561072a578081fd5b610733826106fd565b9392505050565b6000806040838503121561074c578081fd5b610755836106fd565b9150610763602084016106fd565b90509250929050565b60006020828403121561077d578081fd5b5035919050565b60008151808452815b818110156107a95760208185018101518683018201520161078d565b818111156107ba5782602083870101525b50601f01601f19169290920160200192915050565b90565b6001600160a01b0391909116815260200190565b6020808252825182820181905260009190848201906040850190845b818110156108275783516001600160a01b031683529284019291840191600101610802565b50909695505050505050565b901515815260200190565b6000604082526108516040830185610784565b905082151560208301529392505050565b6000604082526108756040830185610784565b90508260208301529392505050565b6020808252600c908201526b2737ba1033bab0b93234b0b760a11b604082015260600190565b6020808252600c908201526b155b985d5d1a1bdc9a5e995960a21b604082015260600190565b6020808252600f908201526e105b1c9958591e48115e1c1a5c9959608a1b604082015260600190565b6020808252601490820152732330b4b632b2103a379039b2b7321022ba3432b960611b604082015260600190565b6020808252600b908201526a139bdd08115e1c1a5c995960aa1b604082015260600190565b6020808252600c908201526b2737ba1023bab0b93234b0b760a11b604082015260600190565b90815260200190565b6000821982111561098e5761098e6109e9565b500190565b6000826109ae57634e487b7160e01b81526012600452602481fd5b500490565b60008160001904831182151516156109cd576109cd6109e9565b500290565b6000828210156109e4576109e46109e9565b500390565b634e487b7160e01b600052601160045260246000fdfe53656e64696e672077696c6c557365722062616c616e636520746f20677561726469616e733a506179696e672074686520636f6d6d697373696f6e206f6620616d6f756e7420257320a2646970667358221220369047ada2bb20e9c30fd77dd92648818c2f5569db01559ff1a298b9a9305c3f64736f6c63430008000033a2646970667358221220251948b9f83140d2ae67e51a9aae848b8cf750db1bfccc28b007f131f2c49ba064736f6c63430008000033",
    "linkReferences": {}
  },
  "methodIdentifiers": {
    "buildWill(address,uint256)": "820bd803",
    "getCurrentTime()": "29cb924d"
  },
  "id": 7
}