{
  "abi": [
    {
      "inputs": [
        {
          "internalType": "address",
          "name": "_willUser",
          "type": "address"
        },
        {
          "internalType": "uint256",
          "name": "_expiration",
          "type": "uint256"
        },
        {
          "internalType": "address",
          "name": "_dao",
          "type": "address"
        }
      ],
      "stateMutability": "nonpayable",
      "type": "constructor"
    },
    {
      "inputs": [],
      "name": "Dao",
      "outputs": [
        {
          "internalType": "address",
          "name": "",
          "type": "address"
        }
      ],
      "stateMutability": "view",
      "type": "function"
    },
    {
      "inputs": [
        {
          "internalType": "address",
          "name": "",
          "type": "address"
        }
      ],
      "name": "balances",
      "outputs": [
        {
          "internalType": "uint256",
          "name": "",
          "type": "uint256"
        }
      ],
      "stateMutability": "view",
      "type": "function"
    },
    {
      "inputs": [],
      "name": "deposit",
      "outputs": [],
      "stateMutability": "payable",
      "type": "function"
    },
    {
      "inputs": [
        {
          "internalType": "address",
          "name": "_token",
          "type": "address"
        },
        {
          "internalType": "uint256",
          "name": "_tokenamount",
          "type": "uint256"
        }
      ],
      "name": "depositTokens",
      "outputs": [],
      "stateMutability": "payable",
      "type": "function"
    },
    {
      "inputs": [],
      "name": "expiration",
      "outputs": [
        {
          "internalType": "uint256",
          "name": "",
          "type": "uint256"
        }
      ],
      "stateMutability": "view",
      "type": "function"
    },
    {
      "inputs": [],
      "name": "getBalance",
      "outputs": [
        {
          "internalType": "uint256",
          "name": "",
          "type": "uint256"
        }
      ],
      "stateMutability": "view",
      "type": "function"
    },
    {
      "inputs": [],
      "name": "getGuardians",
      "outputs": [
        {
          "internalType": "address[]",
          "name": "",
          "type": "address[]"
        }
      ],
      "stateMutability": "view",
      "type": "function"
    },
    {
      "inputs": [
        {
          "internalType": "address",
          "name": "_token",
          "type": "address"
        }
      ],
      "name": "getTokenBalance",
      "outputs": [
        {
          "internalType": "uint256",
          "name": "",
          "type": "uint256"
        }
      ],
      "stateMutability": "view",
      "type": "function"
    },
    {
      "inputs": [
        {
          "internalType": "address",
          "name": "",
          "type": "address"
        }
      ],
      "name": "guardianInfo",
      "outputs": [
        {
          "internalType": "bool",
          "name": "isGuardian",
          "type": "bool"
        }
      ],
      "stateMutability": "view",
      "type": "function"
    },
    {
      "inputs": [],
      "name": "isExpired",
      "outputs": [
        {
          "internalType": "bool",
          "name": "",
          "type": "bool"
        }
      ],
      "stateMutability": "view",
      "type": "function"
    },
    {
      "inputs": [
        {
          "internalType": "address",
          "name": "_guardian",
          "type": "address"
        },
        {
          "internalType": "address",
          "name": "superGuardian",
          "type": "address"
        },
        {
          "internalType": "address",
          "name": "_token",
          "type": "address"
        }
      ],
      "name": "ownershipTransfer",
      "outputs": [],
      "stateMutability": "payable",
      "type": "function"
    },
    {
      "inputs": [
        {
          "internalType": "uint256",
          "name": "_extension",
          "type": "uint256"
        }
      ],
      "name": "setExtension",
      "outputs": [],
      "stateMutability": "nonpayable",
      "type": "function"
    },
    {
      "inputs": [
        {
          "internalType": "address",
          "name": "_guardian",
          "type": "address"
        }
      ],
      "name": "setGuardian",
      "outputs": [],
      "stateMutability": "nonpayable",
      "type": "function"
    },
    {
      "inputs": [],
      "name": "timeLeft",
      "outputs": [
        {
          "internalType": "uint256",
          "name": "",
          "type": "uint256"
        }
      ],
      "stateMutability": "view",
      "type": "function"
    },
    {
      "inputs": [],
      "name": "willUser",
      "outputs": [
        {
          "internalType": "address",
          "name": "",
          "type": "address"
        }
      ],
      "stateMutability": "view",
      "type": "function"
    }
  ],
  "bytecode": {
    "object": "0x608060405234801561001057600080fd5b5060405161126f38038061126f83398101604081905261002f9161009b565b600080546001600160a01b0319166001600160a01b03851617905561005482426100d7565b600155600380546001600160a01b0319166001600160a01b0392909216919091179055506100fd9050565b80516001600160a01b038116811461009657600080fd5b919050565b6000806000606084860312156100b057600080fd5b6100b98461007f565b9250602084015191506100ce6040850161007f565b90509250925092565b600082198211156100f857634e487b7160e01b600052601160045260246000fd5b500190565b6111638061010c6000396000f3fe6080604052600436106100e85760003560e01c80633aecd0e31161008a5780638a0dac4a116100595780638a0dac4a14610278578063c7fa57cd14610298578063d0e30db014610256578063db91f7a6146102b857600080fd5b80633aecd0e31461020d5780634665096d1461022d57806366168bd7146102435780636dbd40e81461025857600080fd5b80631300a6d1116100c65780631300a6d11461017b57806327e235e3146101905780632c68b868146101bd5780632f13b60c146101f557600080fd5b80630665f04b146100ed578063092d79c21461011857806312065fe014610158575b600080fd5b3480156100f957600080fd5b506101026102cb565b60405161010f9190610e22565b60405180910390f35b34801561012457600080fd5b50610148610133366004610e8b565b60046020526000908152604090205460ff1681565b604051901515815260200161010f565b34801561016457600080fd5b5061016d610361565b60405190815260200161010f565b34801561018757600080fd5b5061016d61039b565b34801561019c57600080fd5b5061016d6101ab366004610e8b565b60056020526000908152604090205481565b3480156101c957600080fd5b506003546101dd906001600160a01b031681565b6040516001600160a01b03909116815260200161010f565b34801561020157600080fd5b50600154421015610148565b34801561021957600080fd5b5061016d610228366004610e8b565b6103d9565b34801561023957600080fd5b5061016d60015481565b610256610251366004610ea6565b61044d565b005b34801561026457600080fd5b50610256610273366004610ed0565b6104db565b34801561028457600080fd5b50610256610293366004610e8b565b61056b565b3480156102a457600080fd5b506000546101dd906001600160a01b031681565b6102566102c6366004610ee9565b61063f565b6000546060906001600160a01b031633146103015760405162461bcd60e51b81526004016102f890610f2c565b60405180910390fd5b600280548060200260200160405190810160405280929190818152602001828054801561035757602002820191906000526020600020905b81546001600160a01b03168152600190910190602001808311610339575b5050505050905090565b60006103966040518060400160405280601181526020017031b7b73a3930b1ba103130b630b731b29d60791b815250476106ec565b504790565b600080546001600160a01b031633146103c65760405162461bcd60e51b81526004016102f890610f2c565b426001546103d49190610f68565b905090565b6040516370a0823160e01b815230600482015260009082906001600160a01b038216906370a0823190602401602060405180830381865afa158015610422573d6000803e3d6000fd5b505050506040513d601f19601f820116820180604052508101906104469190610f7f565b9392505050565b60405163095ea7b360e01b81523060048201526024810182905282906001600160a01b0382169063095ea7b3906044016020604051808303816000875af115801561049c573d6000803e3d6000fd5b505050506040513d601f19601f820116820180604052508101906104c09190610f98565b506104d66001600160a01b038216333085610735565b505050565b6000546001600160a01b031633146105055760405162461bcd60e51b81526004016102f890610f2c565b60015442106105485760405162461bcd60e51b815260206004820152600f60248201526e105b1c9958591e48115e1c1a5c9959608a1b60448201526064016102f8565b8061055161039b565b61055b9042610fba565b6105659190610fba565b60015550565b6000546001600160a01b031633146105955760405162461bcd60e51b81526004016102f890610f2c565b60015442106105d85760405162461bcd60e51b815260206004820152600f60248201526e105b1c9958591e48115e1c1a5c9959608a1b60448201526064016102f8565b6001600160a01b031660008181526004602052604081206002805460018181018355919093527f405787fa12a823e0f2b7631cc41b3ba8828b3321ca811111fa75cd3aa3bb5ace90920180546001600160a01b031916909317909255815460ff1916179055565b6001600160a01b038316600090815260046020526040902060018054421015146106995760405162461bcd60e51b815260206004820152600b60248201526a139bdd08115e1c1a5c995960aa1b60448201526064016102f8565b805460ff166106d95760405162461bcd60e51b815260206004820152600c60248201526b2737ba1023bab0b93234b0b760a11b60448201526064016102f8565b8392506106e683836107a0565b50505050565b610731828260405160240161070292919061102a565b60408051601f198184030181529190526020810180516001600160e01b03166309710a9d60e41b1790526108b6565b5050565b6040516001600160a01b03808516602483015283166044820152606481018290526106e69085906323b872dd60e01b906084015b60408051601f198184030181529190526020810180516001600160e01b03166001600160e01b0319909316929092179091526108d7565b80336001600160a01b038416146107e85760405162461bcd60e51b815260206004820152600c60248201526b2737ba1033bab0b93234b0b760a11b60448201526064016102f8565b600060646107f747600261104c565b610801919061106b565b6040516370a0823160e01b81523060048201529091506000906064906001600160a01b038516906370a0823190602401602060405180830381865afa15801561084e573d6000803e3d6000fd5b505050506040513d601f19601f820116820180604052508101906108729190610f7f565b61087d90600261104c565b610887919061106b565b9050610892826109a9565b61089c8185610a81565b6108a68585610acb565b6108af85610b96565b5050505050565b80516a636f6e736f6c652e6c6f67602083016000808483855afa5050505050565b600061092c826040518060400160405280602081526020017f5361666545524332303a206c6f772d6c6576656c2063616c6c206661696c6564815250856001600160a01b0316610c659092919063ffffffff16565b8051909150156104d6578080602001905181019061094a9190610f98565b6104d65760405162461bcd60e51b815260206004820152602a60248201527f5361666545524332303a204552433230206f7065726174696f6e20646964206e6044820152691bdd081cdd58d8d9595960b21b60648201526084016102f8565b6109cb6040518060600160405280602781526020016110e660279139826106ec565b6003546040516000916001600160a01b03169083908381818185875af1925050503d8060008114610a18576040519150601f19603f3d011682016040523d82523d6000602084013e610a1d565b606091505b5050905080610a795760405162461bcd60e51b815260206004820152602260248201527f4661696c656420746f2073656e6420457468657220666f7220636f6d6d69736960448201526137b760f11b60648201526084016102f8565b6104d6610361565b6000819050610aa86040518060600160405280602981526020016110bd60299139846106ec565b600354610ac2906001600160a01b03838116911685610c7c565b6106e6826103d9565b6040516370a0823160e01b815230600482015282906000906001600160a01b038316906370a0823190602401602060405180830381865afa158015610b14573d6000803e3d6000fd5b505050506040513d601f19601f82011682018060405250810190610b389190610f7f565b9050610b796040518060400160405280601d81526020017f5769746864726177696e6720546f6b656e2062616c616e6365206f663a000000815250826106ec565b610b8d6001600160a01b0383168483610c7c565b6108af846103d9565b610bb860405180606001604052806021815260200161110d60219139476106ec565b6000816001600160a01b03164760405160006040518083038185875af1925050503d8060008114610c05576040519150601f19603f3d011682016040523d82523d6000602084013e610c0a565b606091505b5050905080610a795760405162461bcd60e51b815260206004820152602160248201527f4661696c656420746f2073656e6420457468657220746f20677561726469616e6044820152607360f81b60648201526084016102f8565b6060610c748484600085610cac565b949350505050565b6040516001600160a01b0383166024820152604481018290526104d690849063a9059cbb60e01b90606401610769565b606082471015610d0d5760405162461bcd60e51b815260206004820152602660248201527f416464726573733a20696e73756666696369656e742062616c616e636520666f6044820152651c8818d85b1b60d21b60648201526084016102f8565b600080866001600160a01b03168587604051610d29919061108d565b60006040518083038185875af1925050503d8060008114610d66576040519150601f19603f3d011682016040523d82523d6000602084013e610d6b565b606091505b5091509150610d7c87838387610d87565b979650505050505050565b60608315610df3578251610dec576001600160a01b0385163b610dec5760405162461bcd60e51b815260206004820152601d60248201527f416464726573733a2063616c6c20746f206e6f6e2d636f6e747261637400000060448201526064016102f8565b5081610c74565b610c748383815115610e085781518083602001fd5b8060405162461bcd60e51b81526004016102f891906110a9565b6020808252825182820181905260009190848201906040850190845b81811015610e635783516001600160a01b031683529284019291840191600101610e3e565b50909695505050505050565b80356001600160a01b0381168114610e8657600080fd5b919050565b600060208284031215610e9d57600080fd5b61044682610e6f565b60008060408385031215610eb957600080fd5b610ec283610e6f565b946020939093013593505050565b600060208284031215610ee257600080fd5b5035919050565b600080600060608486031215610efe57600080fd5b610f0784610e6f565b9250610f1560208501610e6f565b9150610f2360408501610e6f565b90509250925092565b6020808252600c908201526b155b985d5d1a1bdc9a5e995960a21b604082015260600190565b634e487b7160e01b600052601160045260246000fd5b600082821015610f7a57610f7a610f52565b500390565b600060208284031215610f9157600080fd5b5051919050565b600060208284031215610faa57600080fd5b8151801515811461044657600080fd5b60008219821115610fcd57610fcd610f52565b500190565b60005b83811015610fed578181015183820152602001610fd5565b838111156106e65750506000910152565b60008151808452611016816020860160208601610fd2565b601f01601f19169290920160200192915050565b60408152600061103d6040830185610ffe565b90508260208301529392505050565b600081600019048311821515161561106657611066610f52565b500290565b60008261108857634e487b7160e01b600052601260045260246000fd5b500490565b6000825161109f818460208701610fd2565b9190910192915050565b6020815260006104466020830184610ffe56fe506179696e672074686520546f6b656e20636f6d6d697373696f6e206f6620616d6f756e7420257320506179696e67207468652045544820636f6d6d697373696f6e206f6620616d6f756e742025732053656e64696e67204554482062616c616e636520746f20677561726469616e733aa2646970667358221220b7aa97bff594a4e8af48e1b7a4d16579866142b455e77d46155d3f104ce74eea64736f6c634300080a0033",
    "linkReferences": {}
  },
  "methodIdentifiers": {
    "Dao()": "2c68b868",
    "balances(address)": "27e235e3",
    "deposit()": "d0e30db0",
    "depositTokens(address,uint256)": "66168bd7",
    "expiration()": "4665096d",
    "getBalance()": "12065fe0",
    "getGuardians()": "0665f04b",
    "getTokenBalance(address)": "3aecd0e3",
    "guardianInfo(address)": "092d79c2",
    "isExpired()": "2f13b60c",
    "ownershipTransfer(address,address,address)": "db91f7a6",
    "setExtension(uint256)": "6dbd40e8",
    "setGuardian(address)": "8a0dac4a",
    "timeLeft()": "1300a6d1",
    "willUser()": "c7fa57cd"
  },
  "id": 11
}