{
  "abi": [
    {
      "inputs": [
        {
          "internalType": "address",
          "name": "_willUser",
          "type": "address"
        },
        {
          "internalType": "uint256",
          "name": "_expiration",
          "type": "uint256"
        }
      ],
      "stateMutability": "nonpayable",
      "type": "constructor"
    },
    {
      "inputs": [],
      "name": "Dao",
      "outputs": [
        {
          "internalType": "address",
          "name": "",
          "type": "address"
        }
      ],
      "stateMutability": "view",
      "type": "function"
    },
    {
      "inputs": [],
      "name": "expiration",
      "outputs": [
        {
          "internalType": "uint256",
          "name": "",
          "type": "uint256"
        }
      ],
      "stateMutability": "view",
      "type": "function"
    },
    {
      "inputs": [],
      "name": "getBalance",
      "outputs": [
        {
          "internalType": "uint256",
          "name": "",
          "type": "uint256"
        }
      ],
      "stateMutability": "view",
      "type": "function"
    },
    {
      "inputs": [],
      "name": "getGuardians",
      "outputs": [
        {
          "internalType": "address[]",
          "name": "",
          "type": "address[]"
        }
      ],
      "stateMutability": "view",
      "type": "function"
    },
    {
      "inputs": [
        {
          "internalType": "address",
          "name": "",
          "type": "address"
        }
      ],
      "name": "guardianInfo",
      "outputs": [
        {
          "internalType": "bool",
          "name": "isGuardian",
          "type": "bool"
        }
      ],
      "stateMutability": "view",
      "type": "function"
    },
    {
      "inputs": [],
      "name": "isExpired",
      "outputs": [
        {
          "internalType": "bool",
          "name": "",
          "type": "bool"
        }
      ],
      "stateMutability": "view",
      "type": "function"
    },
    {
      "inputs": [
        {
          "internalType": "address",
          "name": "_guardian",
          "type": "address"
        },
        {
          "internalType": "address",
          "name": "superGuardian",
          "type": "address"
        }
      ],
      "name": "ownershipTransfer",
      "outputs": [],
      "stateMutability": "payable",
      "type": "function"
    },
    {
      "inputs": [
        {
          "internalType": "uint256",
          "name": "_extension",
          "type": "uint256"
        }
      ],
      "name": "setExtension",
      "outputs": [],
      "stateMutability": "nonpayable",
      "type": "function"
    },
    {
      "inputs": [
        {
          "internalType": "address",
          "name": "_guardian",
          "type": "address"
        }
      ],
      "name": "setGuardian",
      "outputs": [],
      "stateMutability": "nonpayable",
      "type": "function"
    },
    {
      "inputs": [],
      "name": "timeLeft",
      "outputs": [
        {
          "internalType": "uint256",
          "name": "",
          "type": "uint256"
        }
      ],
      "stateMutability": "view",
      "type": "function"
    },
    {
      "inputs": [],
      "name": "willUser",
      "outputs": [
        {
          "internalType": "address",
          "name": "",
          "type": "address"
        }
      ],
      "stateMutability": "view",
      "type": "function"
    }
  ],
  "bytecode": {
    "object": "0x6080604052600180546001600160a01b0319168117905534801561002257600080fd5b50604051610b4c380380610b4c83398101604081905261004191610071565b600080546001600160a01b0319166001600160a01b03841617905561006681426100ab565b600255506100d19050565b6000806040838503121561008457600080fd5b82516001600160a01b038116811461009b57600080fd5b6020939093015192949293505050565b600082198211156100cc57634e487b7160e01b600052601160045260246000fd5b500190565b610a6c806100e06000396000f3fe60806040526004361061009c5760003560e01c80632f13b60c116100645780632f13b60c1461017c5780634665096d146101945780636dbd40e8146101aa5780637ee35ffa146101cc5780638a0dac4a146101df578063c7fa57cd146101ff57600080fd5b80630665f04b146100a1578063092d79c2146100cc57806312065fe01461010c5780631300a6d11461012f5780632c68b86814610144575b600080fd5b3480156100ad57600080fd5b506100b661021f565b6040516100c3919061080d565b60405180910390f35b3480156100d857600080fd5b506100fc6100e7366004610876565b60046020526000908152604090205460ff1681565b60405190151581526020016100c3565b34801561011857600080fd5b506101216102b5565b6040519081526020016100c3565b34801561013b57600080fd5b50610121610307565b34801561015057600080fd5b50600154610164906001600160a01b031681565b6040516001600160a01b0390911681526020016100c3565b34801561018857600080fd5b506002544210156100fc565b3480156101a057600080fd5b5061012160025481565b3480156101b657600080fd5b506101ca6101c5366004610898565b610345565b005b6101ca6101da3660046108b1565b6103d5565b3480156101eb57600080fd5b506101ca6101fa366004610876565b610483565b34801561020b57600080fd5b50600054610164906001600160a01b031681565b6000546060906001600160a01b031633146102555760405162461bcd60e51b815260040161024c906108e4565b60405180910390fd5b60038054806020026020016040519081016040528092919081815260200182805480156102ab57602002820191906000526020600020905b81546001600160a01b0316815260019091019060200180831161028d575b5050505050905090565b60408051808201909152601181527031b7b73a3930b1ba103130b630b731b29d60791b60208201526000805490916102f6916001600160a01b031631610557565b506000546001600160a01b03163190565b600080546001600160a01b031633146103325760405162461bcd60e51b815260040161024c906108e4565b426002546103409190610920565b905090565b6000546001600160a01b0316331461036f5760405162461bcd60e51b815260040161024c906108e4565b60025442106103b25760405162461bcd60e51b815260206004820152600f60248201526e105b1c9958591e48115e1c1a5c9959608a1b604482015260640161024c565b806103bb610307565b6103c59042610937565b6103cf9190610937565b60025550565b6001600160a01b038216600090815260046020526040902060025442101515156001146104325760405162461bcd60e51b815260206004820152600b60248201526a139bdd08115e1c1a5c995960aa1b604482015260640161024c565b805460ff166104725760405162461bcd60e51b815260206004820152600c60248201526b2737ba1023bab0b93234b0b760a11b604482015260640161024c565b82915061047e826105a0565b505050565b6000546001600160a01b031633146104ad5760405162461bcd60e51b815260040161024c906108e4565b60025442106104f05760405162461bcd60e51b815260206004820152600f60248201526e105b1c9958591e48115e1c1a5c9959608a1b604482015260640161024c565b6001600160a01b031660008181526004602052604081206003805460018181018355919093527fc2575a0e9e593c00f959f8c92f12db2869c3395a3b0502d05e2516446f71f85b90920180546001600160a01b031916909317909255815460ff1916179055565b61059c828260405160240161056d92919061094f565b60408051601f198184030181529190526020810180516001600160e01b03166309710a9d60e41b179052610629565b5050565b336001600160a01b038216146105e75760405162461bcd60e51b815260206004820152600c60248201526b2737ba1033bab0b93234b0b760a11b604482015260640161024c565b60008054606490610603906001600160a01b03163160026109ac565b61060d91906109cb565b90506106188161064a565b6106218261072d565b61047e6102b5565b80516a636f6e736f6c652e6c6f67602083016000808483855afa5050505050565b61066c604051806060016040528060238152602001610a146023913982610557565b60015460405160009182916001600160a01b039091169084908381818185875af1925050503d80600081146106bd576040519150601f19603f3d011682016040523d82523d6000602084013e6106c2565b606091505b50915091508161071f5760405162461bcd60e51b815260206004820152602260248201527f4661696c656420746f2073656e6420457468657220666f7220636f6d6d69736960448201526137b760f11b606482015260840161024c565b6107276102b5565b50505050565b61075b6040518060600160405280602681526020016109ee602691396000546001600160a01b031631610557565b6000805460405182916001600160a01b0385811692911631908381818185875af1925050503d80600081146107ac576040519150601f19603f3d011682016040523d82523d6000602084013e6107b1565b606091505b50915091508161071f5760405162461bcd60e51b815260206004820152602160248201527f4661696c656420746f2073656e6420457468657220746f20677561726469616e6044820152607360f81b606482015260840161024c565b6020808252825182820181905260009190848201906040850190845b8181101561084e5783516001600160a01b031683529284019291840191600101610829565b50909695505050505050565b80356001600160a01b038116811461087157600080fd5b919050565b60006020828403121561088857600080fd5b6108918261085a565b9392505050565b6000602082840312156108aa57600080fd5b5035919050565b600080604083850312156108c457600080fd5b6108cd8361085a565b91506108db6020840161085a565b90509250929050565b6020808252600c908201526b155b985d5d1a1bdc9a5e995960a21b604082015260600190565b634e487b7160e01b600052601160045260246000fd5b6000828210156109325761093261090a565b500390565b6000821982111561094a5761094a61090a565b500190565b604081526000835180604084015260005b8181101561097d5760208187018101516060868401015201610960565b8181111561098f576000606083860101525b50602083019390935250601f91909101601f191601606001919050565b60008160001904831182151516156109c6576109c661090a565b500290565b6000826109e857634e487b7160e01b600052601260045260246000fd5b50049056fe53656e64696e672077696c6c557365722062616c616e636520746f20677561726469616e733a506179696e672074686520636f6d6d697373696f6e206f6620616d6f756e7420257320a2646970667358221220447bd040f6fe9973632ca6ef064b741294d816cf63e7139ff6e221baeb95535d64736f6c634300080a0033",
    "linkReferences": {}
  },
  "methodIdentifiers": {
    "Dao()": "2c68b868",
    "expiration()": "4665096d",
    "getBalance()": "12065fe0",
    "getGuardians()": "0665f04b",
    "guardianInfo(address)": "092d79c2",
    "isExpired()": "2f13b60c",
    "ownershipTransfer(address,address)": "7ee35ffa",
    "setExtension(uint256)": "6dbd40e8",
    "setGuardian(address)": "8a0dac4a",
    "timeLeft()": "1300a6d1",
    "willUser()": "c7fa57cd"
  },
  "id": 7
}